:100000000C9464000C9481000C9481000C94810089
:100010000C9481000C9481000C9481000C9481005C
:100020000C9481000C9481000C9481000C9481004C
:100030000C9481000C9481000C9481000C9481003C
:100040000C9481000C9481000C9481000C9481002C
:100050000C9481000C9481000C9481000C9481001C
:100060000C9481000C9481000C9481000C9481000C
:100070000C9481000C9481000C9481000C948100FC
:100080000C9481000C9481000C9481000C948100EC
:100090000C9481000C9481000C9481000C948100DC
:1000A0000C9481000C9481000C9481000C948100CC
:1000B0000C94810090009300960099009C009F0092
:1000C000A200A500A800AB0011241FBECFEFD8E00E
:1000D000DEBFCDBF11E0A0E0B1E0EAECF2E002C08B
:1000E00005900D92A430B107D9F721E0A4E0B1E06A
:1000F00001C01D92A031B207E1F70E94AE000C943E
:1001000063010C9400008FEF8AB91BB8089590E04A
:100110008A30910510F5FC01E65AFF4F0C94490115
:100120008FEB8BB9089586E88BB908958BED8BB969
:1001300008958FEC8BB9089586EE8BB908958DEEF6
:100140008BB908958DEF8BB9089587E88BB9089521
:100150008FEF8BB9089587EE8BB908950E948300C5
:1001600084B18F6084B98091040190910501499711
:1001700011F51092050110920401809100019091F7
:10018000010101969093010180930001CC979CF0AE
:1001900010920101109200018091020190910301DF
:1001A00001969093030180930201489724F01092E6
:1001B00003011092020180910201909103012AE053
:1001C00030E0B9010E943501709307016093060188
:1001D00090930901809308018091000190910101A1
:1001E000B9010E94350170930F0160930E01909345
:1001F0000D0180930C018EE085B9809106010E946B
:1002000087008FE39CE90197F1F700C000008DE0C3
:1002100085B9809108010E9487008FE39CE90197CE
:10022000F1F700C000008BE085B980910E010E94BB
:1002300087008FE39CE90197F1F700C0000087E099
:1002400085B980910C010E9487008FE39CE901979A
:10025000F1F700C000008091040190910501019622
:1002600090930501809304017ECF97FB072E16F42F
:10027000009407D077FD09D00E944F0107FC05D0FC
:100280003EF4909581959F4F0895709561957F4FAD
:100290000895EE0FFF1F0590F491E02D0994AA1B1D
:1002A000BB1B51E107C0AA1FBB1FA617B70710F061
:1002B000A61BB70B881F991F5A95A9F78095909593
:0A02C000BC01CD010895F894FFCFB2
:0402CA0034001700E5
:00000001FF
