S0130000444953504C4159375345472E73726563E5
S11300000C945A000C9477000C9477000C947700AD
S11300100C9477000C9477000C9477000C94770080
S11300200C9477000C9477000C9477000C94770070
S11300300C9477000C9477000C9477000C94770060
S11300400C9477000C9477000C9477000C94770050
S11300500C9477000C9477000C9477000C94770040
S11300600C9477000C9477000C9477000C94770030
S11300700C9477000C9477000C9477000C94770020
S11300800C9477000C9477000C9477000C94770010
S11300900C9477000C9477000C9477000C94770000
S11300A00C9477000C9477000C9477000C947700F0
S11300B00C94770011241FBECFEFD8E0DEBFCDBF74
S11300C011E0A0E0B1E0E2E4F2E002C005900D929C
S11300D0AA30B107D9F721E0AAE0B1E001C01D922E
S11300E0AA30B207E1F70E9409010C941F010C9495
S11300F000008FEF8AB90895CF93DF93CDB7DEB7B1
S11301002A970FB6F894DEBF0FBECDBF9AE0E0E0A9
S1130110F1E0DE01119601900D929A95E1F790E0DD
S1130120E1E0F0E0EC0FFD1FE80FF91F208120FF54
S113013004C02BB120642BB903C02BB12F7B2BB986
S1130140E1E0F0E0EC0FFD1FE80FF91F208121FF33
S113015004C02BB122602BB903C02BB12D7F2BB966
S1130160E1E0F0E0EC0FFD1FE80FF91F208122FF12
S113017004C02BB124602BB903C02BB12B7F2BB946
S1130180E1E0F0E0EC0FFD1FE80FF91F208123FFF1
S113019004C02BB128602BB903C02BB1277F2BB926
S11301A0E1E0F0E0EC0FFD1FE80FF91F208124FFD0
S11301B004C02BB120612BB903C02BB12F7E2BB906
S11301C0E1E0F0E0EC0FFD1FE80FF91F208125FFAF
S11301D004C02BB120622BB903C02BB12F7D2BB9E6
S11301E0E1E0F0E0EC0FFD1FE80FF91F808186FFCE
S11301F004C08BB181608BB903C08BB18E7F8BB986
S11302002A960FB6F894DEBF0FBECDBFDF91CF9113
S113021008950E947900C0E0D0E00DC08C2F0E94A8
S11302207C002FEF84E39CE0215080409040E1F774
S113023000C000002196CA30D10584F3ECCFF894B5
S1050240FFCFEA
S10D0242BF86DBCFE6EDFD87FFE782
S9030000FC
