:100000000C945A000C946F000C946F000C946F00C9
:100010000C946F000C946F000C946F000C946F00A4
:100020000C946F000C946F000C946F000C946F0094
:100030000C946F000C946F000C946F000C946F0084
:100040000C946F000C946F000C946F000C946F0074
:100050000C946F000C946F000C946F000C946F0064
:100060000C946F000C946F000C946F000C946F0054
:100070000C946F000C946F000C946F000C946F0044
:100080000C946F000C946F000C946F000C946F0034
:100090000C946F000C946F000C946F000C946F0024
:1000A0000C946F000C946F000C946F000C946F0014
:1000B0000C946F0011241FBECFEFD8E0DEBFCDBF80
:1000C00011E0A0E0B1E0E2E2F2E002C005900D92A2
:1000D000A030B107D9F70E94F7000C940F010C94DF
:1000E000000081E885B92FEF80E792E02150804041
:1000F0009040E1F700C0000083EC85B92FEF80E766
:1001000092E0215080409040E1F700C0000087EE6F
:1001100085B92FEF80E792E0215080409040E1F7D1
:1001200000C000008FEF85B92FEF80E792E02150EB
:1001300080409040E1F700C000008EE785B92FEFC6
:1001400080E792E0215080409040E1F700C000003D
:100150008CE385B92FEF80E792E0215080409040FA
:10016000E1F700C0000088E185B92FEF80E792E059
:10017000215080409040E1F700C0000015B82FEFFB
:1001800080E792E0215080409040E1F700C00000FD
:1001900008958FE085B92FEF80E792E021508040ED
:1001A0009040E1F700C0000080EF85B92FEF80E7B5
:1001B00092E0215080409040E1F700C00000089597
:1001C0008AEA85B92FEF80E792E021508040904085
:1001D000E1F700C0000085E585B92FEF80E792E0E8
:1001E000215080409040E1F700C0000008958FEF5B
:1001F00084B915B80E947100C0E0D0E003C00E942D
:10020000C9002196C430D105D4F3C0E0D0E003C0CA
:100210000E94E0002196C430D105D4F3EBCFF894CE
:02022000FFCF0E
:00000001FF
