S0110000434C415345554152542E737265636F
S11300000C945A000C9477000C9477000C947700AD
S11300100C9477000C9477000C9477000C94770080
S11300200C9477000C9477000C9477000C94770070
S11300300C9477000C9477000C9477000C94770060
S11300400C9477000C9477000C9477000C94770050
S11300500C9477000C9477000C9477000C94770040
S11300600C9477000C9477000C9477000C94770030
S11300700C9477000C9477000C9477000C94770020
S11300800C9477000C9477000C9477000C94770010
S11300900C9477000C9477000C9477000C94770000
S11300A00C9477000C9477000C9477000C947700F0
S11300B00C94770011241FBECFEFD8E0DEBFCDBF74
S11300C011E0A0E0B1E0E8E7F1E002C005900D9294
S11300D0A032B107D9F721E0A0E2B1E001C01D923E
S11300E0A032B207E1F70E9479000C94BA000C9494
S11300F0000060E875E280E090E00E948D0080E0FE
S113010091E00E94AD002FEF89E698E121508040F4
S11301109040E1F700C00000F2CF1092C50087E6DE
S11301208093C400A1ECB0E08C918D7F8C93E2ECC1
S1130130F0E080818660808380818F7C80838081F1
S11301408F7380838C9188618C9308959091C00003
S113015095FFFCCF8093C6000895CF93DF93EC0105
S113016003C00E94A600219688818111FACFDF91F5
S10B0170CF910895F894FFCF2C
S1130178494E472E20454C454354524F4E4943411E
S1130188202D205543455641203A4420200D0A008D
S9030000FC
