:08000000803102288731FD2F39
:100DAC00F4007408F1000430F136890BDA2E710866
:100DBC00F20074080F39F300720887314727863127
:100DCC0073088731472786310800F82E7508840090
:100DDC007608850000088631D62686310130F50765
:100DEC000030F63D75088400760885001200031D5E
:100DFC00002F012FEC2E0800F4007408F1000430D1
:100E0C00F136890B062F7108F20074080F39F300C4
:100E1C00720887311E278731730887311E27873167
:100E2C000D30F100FC30890B192FF10B192F080034
:100E3C00F00022000F107018242F252F272F0F12CF
:100E4C00282F0F16F0182B2F2C2F2E2F8F122F2F01
:100E5C008F167019322F332F352F0F13362F0F1784
:100E6C00F019392F3A2F3C2F8F133D2F8F178F10DE
:100E7C008F148F10D63000320032890B412F003284
:100E8C000800F00022000F1470184D2F4E2F502F19
:100E9C000F12512F0F16F018542F552F572F8F124A
:100EAC00582F8F1670195B2F5C2F5E2F0F135F2F2F
:100EBC000F17F019622F632F652F8F13662F8F1763
:100ECC008F108F148F10D63000320032890B6A2F9E
:100EDC00003208008731AD2787310030F5008830AB
:100EEC00F6008631EB2687310D30F900AF30F80073
:100EFC00B630890B7F2FF80B7F2FF90B7F2F003229
:100F0C000C308731022787310D30F900AF30F800F3
:100F1C00B630890B8F2FF80B8F2FF90B8F2F0032D8
:100F2C0008308731022787310D30F900AF30F800D7
:100F3C00B630890B9F2FF80B9F2FF90B9F2F003288
:100F4C000F30873102278731AA2F803102282100E8
:100F5C000F108F100F128F120F138F1322008F1080
:100F6C000F128F120F138F136230F1006630890B42
:100F7C00BD2FF10BBD2F033087311E278731213058
:100F8C00F1007630890BC82FF10BC82F00320330DB
:100F9C0087311E278731A630890BD22F00320330C0
:100FAC0087311E278731023087311E278731023067
:100FBC0087311E278731083087311E278731003053
:100FCC0087311E2787310F3087311E27873100303C
:100FDC0087311E278731013087311E2787310D302D
:100FEC00F100FC30890BF82FF10BF82F08002000D2
:100FFC008731702F30343134323433343434353427
:10100C003634373438343934303431343234333490
:0E101C00343435343634373438343934003413
:020000040001F9
:08000000FF3FFF3FFF3FFF3F00
:04000E00E23FFF3E90
:00000001FF
