:08000000803102288731EB2F4B
:100F2600FE0012001E00FE0B942F003421001E0846
:100F36008F3960389E001E11FC309E051D149E17C9
:100F4600080021000E138E17813023009B001E120D
:100F56001E159E169D171D160800203400340034F9
:100F660000340034003400340034003400340034DB
:100F760000340034003400340034003400340034CB
:100F86000034383021009900980122009601230090
:100F96000C1421000C148731992787310030F90091
:100FA6000030F8002530F7008030F6008731A4279E
:100FB60087310D30FB00AF30FA00B630890BE12FD8
:100FC600FA0BE12FFB0BE12F0032DC2F80310228D8
:100FD600B0308400873085002030860000308700DE
:100FE6001430873193278731F001F101F201F301C3
:0A0FF600F401F50120008731C42F3B
:020000040001F9
:08000000FF3FFF3FFF3FFF3F00
:04000E00E239FF3E96
:00000001FF
