:100000000C9464000C9476000C9476000C947600AA
:100010000C9476000C9476000C9476000C94760088
:100020000C9476000C9476000C9476000C94760078
:100030000C9476000C9476000C9476000C94760068
:100040000C9476000C9476000C9476000C94760058
:100050000C9476000C9476000C9476000C94760048
:100060000C9476000C9476000C9476000C94760038
:100070000C9476000C9476000C9476000C94760028
:100080000C9476000C9476000C9476000C94760018
:100090000C9476000C9476000C9476000C94760008
:1000A0000C9476000C9476000C9476000C947600F8
:1000B0000C947600850088008B008E0091009400DF
:1000C00097009A009D00A00011241FBECFEFD8E03A
:1000D000DEBFCDBF21E0A0E0B1E001C01D92A230A3
:1000E000B207E1F70E94A3000C94E4000C94000016
:1000F0008FEF8AB91BB8089590E08A30910510F50A
:10010000FC01E65AFF4F0C94DE008FEB8BB908958B
:1001100086E88BB908958BED8BB908958FEC8BB978
:10012000089586EE8BB908958DEE8BB908958DEF05
:100130008BB9089587E88BB908958FEF8BB908952F
:1001400087EE8BB908950E94780084B18C7F84B9C2
:10015000809100010E947C00199B11C01999FECF6B
:10016000809100019091010101969093010180938B
:1001700000010A9724F010920101109200011899D1
:1001800013C0189BFECF809100019091010101974F
:100190009093010180930001992334F489E090E069
:1001A00090930101809300012FEF89EF90E021509F
:1001B00080409040E1F700C00000CACFEE0FFF1F63
:0C01C0000590F491E02D0994F894FFCF15
:00000001FF
