:04000000DBEF12F030
:1008000000010000000A00000064000000E803008E
:100810000010270000A086010040420F008096983B
:100820000000E1F50500CA9A3B00803F002041002E
:10083000C842007A44401C4650C347247449971864
:100840004BBCBE4C6B6E4E03155079AD60F34971D5
:1008500000803FCDCC3DD7233C12833AB7D138C678
:100860002737388635C0D633CC2B32708930E7DB5A
:100870002EE53C1E42A20D202048756D652E2025D8
:10088000322E326600202054656D702E2025322EC7
:100890003266006572726F720000480E0001636F6D
:1008A000000E646F63EF08F0250E7819D8B405D0F8
:1008B0007851FDEC12F063EF08F0000E00016C6F50
:1008C000000E6B6F000E6A6F000E696F46C0F6FF78
:1008D00047C0F7FF0800F550CCEC12F0D8A034D098
:1008E000000E00016C6F000E6B6F6BC00FF06CC0E0
:1008F00010F0000E126E0A0E116E95EC12F00FC081
:100900006BF010C06CF0D00E4B6EFF0E4C6E46C0FC
:10091000F6FF47C0F7FF0800F5504D6E4E6A4B508A
:100920004D264C504E224D5000016B274E506C23EB
:10093000464A472A46C0F6FF47C0F7FF0800F55071
:10094000CCEC12F0D8B0D1D746C0F6FF47C0F7FFC5
:100950000800F5502E0AD8A430D000016A8D464A0E
:10096000472A000E776F000E766F1CD076C00FF00E
:1009700077C010F0000E126E0A0E116E95EC12F098
:1009800046C0F6FF47C0F7FF0800F5500F26000EDF
:100990001022D00E0F240001766FFF0E1020776F0B
:1009A000464A472A46C0F6FF47C0F7FF0800F55001
:1009B000CCEC12F0D8A00AD0D9D7000E0001776F86
:1009C000000E766F6A8902D06A8512D046C0F6FFA3
:1009D00047C0F7FF464A472A0800F5CF78F00001E4
:1009E0007851000AD8B41200660AD8B4EDD76BD398
:1009F000070E6A15D8B4E5D26AA904D0000E776F45
:100A0000060E766F63C0D9FF64C0DAFFDECF73F0E5
:100A1000DECF74F0DDCF75F0030E6327000E642384
:100A200075AF11D073C001F074C002F075C003F04F
:100A3000A8EC12F001C073F002C074F003C075F0AE
:100A4000030E00016913000E726F000E716F735177
:100A500074117511D8B486D0820E4B6EFF0E4C6E99
:100A600073C04DF074C04EF075C04FF076C050F0BA
:100A7000100E05D0D89050324F324E324D32E82E03
:100A8000F9D74D504B24716F000E4C20726F7107D7
:100A9000D8A0720771C00FF072C010F0000E126E75
:100AA000030E116E95EC12F00FC071F010C072F0D1
:100AB00071C007F072C008F0000E0A6E0A0E096ECF
:100AC000D5EC10F007C071F008C072F0000172AFF1
:100AD00003D07107D8A072077151000872EC08F0BA
:100AE0002AC06DF02BC06EF02CC06FF06DC01BF0F3
:100AF0006EC01CF06FC01DF073C01EF074C01FF0FC
:100B000075C020F006EC0FF01BC06DF01CC06EF03D
:100B10001DC06FF06DC001F06EC002F06FC003F039
:100B2000000E046E800E056E3F0E066E4AEC10F04D
:100B3000D8B005D000017107D8A0720713D06DC0DE
:100B400001F06EC002F06FC003F0000E046E200EC4
:100B5000056E410E066E4AEC10F0D8A003D00001DD
:100B6000714B722B000177BF06D077511BE10D0E40
:100B7000765DD8B017D073C034F074C035F075C04E
:100B800036F0765176EC0AF02AC037F02BC038F0F8
:100B90002CC039F089EC0CF034C073F035C074F01F
:100BA00036C075F0000172BF06D0725120E10A0E06
:100BB000715DD8B01CD0735174117511D8B456D072
:100BC00073C031F074C032F075C033F08CEC0EF0AD
:100BD0003150321033103410D8A448D0000172BF05
:100BE00045D0725104E1020E715DD8A03FD06DC0B6
:100BF00001F06EC002F06FC003F0700E046E890E3B
:100C0000056E400E066E4AEC10F0D8B003D000011D
:100C1000F70E02D00001F80E7127FF0E72237151FA
:100C200072EC08F02AC06DF02BC06EF02CC06FF093
:100C300073C001F074C002F075C003F06DC004F021
:100C40006EC005F06FC006F05FEC0DF001C065F0FE
:100C500002C066F003C067F004C068F0000E000137
:100C6000736F000E746F000E756F33D073C031F068
:100C700074C032F075C033F08CEC0EF031C065F00A
:100C800032C066F033C067F034C068F073C040F023
:100C900074C041F075C042F065C009F066C00AF04A
:100CA00067C00BF068C00CF0FAEC11F009C043F01B
:100CB0000AC044F00BC045F075EC12F040C073F070
:100CC00041C074F042C075F0000E0001726F000E5A
:100CD000716F010E786F0A0E7819D8B418D0785158
:100CE000040D010EF324F66E080EF420F76E0900D1
:100CF000F550655D0900F55066590900F5506759D2
:100D00000900F5506859D8A002D0782BE4D778C0F4
:100D10004BF04C6A4BBE4C0676514B2677514C2219
:100D200071514B2672514C224B506B5F4C506C5B97
:100D300076517711D8B403D06B07D8A06C07030E97
:100D400069154B6E000E6A154C6E4B504C10D8B4A2
:100D500008D004D0200EFDEC12F000016B07D8A0E3
:100D60006C076CBF05D06C51F5E16B05D8B0F2D7BC
:100D7000030E69154B6E000E6A154C6E4B504C10ED
:100D8000D8B44AD02D0EFDEC12F046D065C001F06B
:100D900066C002F067C003F068C004F0000178513B
:100DA000040D010EF324F66E080EF420F76E090010
:100DB000F5CF05F00900F5CF06F00900F5CF07F0F3
:100DC0000A00F5CF08F017EC11F001C06DF002C079
:100DD0006EF003C06FF004C070F06DC001F06EC023
:100DE00002F06FC003F070C004F00A0E056E000E32
:100DF000066E000E076E000E086EC7EC11F001C003
:100E00006DF002C06EF003C06FF004C070F000011E
:100E10006D51300FFDEC12F0000178077829D8B43D
:100E200008D0B4D7300EFDEC12F000017107D8A045
:100E3000720772BF05D07251F5E17105D8B0F2D7D3
:100E400077BF09D0775104E1090E765DD8A003D0B1
:100E5000080E786F02D076C078F07851765F000E79
:100E600078BFFF0E775B7851D8B403D02E0EFDEC1F
:100E700012F00001785172EC08F02AC060F02BC02B
:100E800061F02CC062F073C01EF074C01FF075C01A
:100E900020F060C01BF061C01CF062C01DF006ECC9
:100EA0000FF01BC031F01CC032F01DC033F08CECD1
:100EB0000EF031C065F032C066F033C067F034C068
:100EC00068F06DD065C001F066C002F067C003F045
:100ED00068C004F000017851040D010EF324F66E91
:100EE000080EF420F76E0900F5CF05F00900F5CFE4
:100EF00006F00900F5CF07F00A00F5CF08F017EC6F
:100F000011F001C06DF002C06EF003C06FF004C0BC
:100F100070F06DC001F06EC002F06FC003F070C0E1
:100F200004F00A0E056E000E066E000E076E000E2F
:100F3000086EC7EC11F001C06DF002C06EF003C086
:100F40006FF004C070F000016D51300FFDEC12F035
:100F500065C001F066C002F067C003F068C004F02D
:100F600000017851040D010EF324F66E080EF420F2
:100F7000F76E0900F5CF05F00900F5CF06F009007E
:100F8000F5CF07F00A00F5CF08F0C7EC11F001C06B
:100F900065F002C066F003C067F004C068F00001AD
:100FA00078077829D8B408D08DD7300EFDEC12F030
:100FB00000017607D8A0770776517711D8B483D08F
:100FC000F4D776517711D8A408D06551661167110E
:100FD0006811D8A402D0764B772B800E78BF7F0E95
:100FE0004B6E7651785D7751800A4B58D8B003D05C
:100FF00076C078F010D07751800A4B6E7851765DCC
:10100000800E78BF7F0E4B58D8B005D07851766FE0
:10101000776B76BF77076B516C11D8B40DD0030E88
:1010200069154B6E000E6A154C6E4B504C10D8B4BF
:1010300003D06B07D8A06C076AAD13D06B51765DF7
:101040007751800A4B6E6C51800A4B58D8B005D04E
:1010500076516B5F77516C5B04D0000E6C6F000EA5
:101060006B6F800E78BF7F0E4B6E6B51785D6C514D
:10107000800A4B58D8B007D078516B5F000E78BF0C
:10108000FF0E6C5B04D0000E6C6F000E6B6F6B512B
:101090006C11D8B40BD0200EFDEC12F000016B07E0
:1010A000D8A06C076B516C11D8A4F5D7030E691545
:1010B0004B6E000E6A154C6E4B504C10D8B403D0DA
:1010C0002D0EFDEC12F046C0F6FF47C0F7FF464A72
:1010D000472A0800F5CF78F000017851D8B4120003
:1010E00054EF04F0306E30AE01D1306C3050800AD5
:1010F000120FD8A091D0000E126E030E116E000ECA
:101100000A6E0A0E096E000E046E640E036E3050F5
:10111000016E026A01BE020658EC11F001C007F030
:1011200002C008F0D5EC10F0090E07240F6E000E77
:101130000820106E95EC12F0500E0F24F66E080E7B
:101140001020F76E0900F5CF1EF00900F5CF1FF053
:101150000A00F5CF20F0000E0A6E640E096E3050C2
:10116000076E086A07BE0806D5EC10F0120E0724B9
:101170000F6E000E0820106E000E126E030E116E20
:1011800095EC12F0500E0F24F66E080E1020F76E3C
:101190000900F5CF1BF00900F5CF1CF00A00F5CFD0
:1011A0001DF006EC0FF01BC02DF01CC02EF01DC072
:1011B0002FF02DC01BF02EC01CF02FC01DF0000E14
:1011C000126E030E116E000E046E0A0E036E305086
:1011D000016E026A01BE020658EC11F001C00FF068
:1011E00002C010F095EC12F0500E0F24F66E080EAF
:1011F0001020F76E0900F5CF1EF00900F5CF1FF0A3
:101200000A00F5CF20F006EC0FF01BC02AF01CC03E
:101210002BF01DC02CF012003050800A750FD8A0A2
:1012200053D0000E0A6E0A0E096E3050076E086A1F
:1012300007BE0806D5EC10F0090E07240F6E000E4D
:101240000820106E000E126E030E116E95EC12F057
:10125000500E0F24F66E080E1020F76E0900F5CF21
:101260001BF00900F5CF1CF00A00F5CF1DF0000EB1
:10127000126E030E116E000E046E0A0E036E3050D5
:10128000016E026A01BE020658EC11F001C00FF0B7
:1012900002C010F095EC12F0500E0F24F66E080EFE
:1012A0001020F76E0900F5CF1EF00900F5CF1FF0F2
:1012B0000A00F5CF20F006EC0FF01BC02AF01CC08E
:1012C0002BF01DC02CF012003050030D500EF324F3
:1012D000F66E080EF420F76E0900F5CF2AF009002B
:1012E000F5CF2BF00A00F5CF2CF012003050800A19
:1012F000120FD8A091D0000E126E030E116E000EC8
:101300000A6E0A0E096E000E046E640E036E3050F3
:10131000016E026A01BE020658EC11F001C007F02E
:1013200002C008F0D5EC10F0090E07240F6E000E75
:101330000820106E95EC12F0290E0F24F66E080EA0
:101340001020F76E0900F5CF1EF00900F5CF1FF051
:101350000A00F5CF20F0000E0A6E640E096E3050C0
:10136000076E086A07BE0806D5EC10F0120E0724B7
:101370000F6E000E0820106E000E126E030E116E1E
:1013800095EC12F0290E0F24F66E080E1020F76E61
:101390000900F5CF1BF00900F5CF1CF00A00F5CFCE
:1013A0001DF006EC0FF01BC02DF01CC02EF01DC070
:1013B0002FF02DC01BF02EC01CF02FC01DF0000E12
:1013C000126E030E116E000E046E0A0E036E305084
:1013D000016E026A01BE020658EC11F001C00FF066
:1013E00002C010F095EC12F0290E0F24F66E080ED4
:1013F0001020F76E0900F5CF1EF00900F5CF1FF0A1
:101400000A00F5CF20F006EC0FF01BC02AF01CC03C
:101410002BF01DC02CF012003050800A750FD8A0A0
:1014200053D0000E0A6E0A0E096E3050076E086A1D
:1014300007BE0806D5EC10F0090E07240F6E000E4B
:101440000820106E000E126E030E116E95EC12F055
:10145000290E0F24F66E080E1020F76E0900F5CF46
:101460001BF00900F5CF1CF00A00F5CF1DF0000EAF
:10147000126E030E116E000E046E0A0E036E3050D3
:10148000016E026A01BE020658EC11F001C00FF0B5
:1014900002C010F095EC12F0290E0F24F66E080E23
:1014A0001020F76E0900F5CF1EF00900F5CF1FF0F0
:1014B0000A00F5CF20F006EC0FF01BC02AF01CC08C
:1014C0002BF01DC02CF012003050030D290EF32418
:1014D000F66E080EF420F76E0900F5CF2AF0090029
:1014E000F5CF2BF00A00F5CF2CF01200336E6D0E05
:1014F00033649FD0000E126E030E116E000E0A6E42
:101500000A0E096E000E046E640E036E33C001F005
:10151000026A58EC11F001C007F002C008F0D5ECE7
:1015200010F0090E07240F6E000E0820106E95ECC7
:1015300012F0500E0F24F66E080E1020F76E090000
:10154000F5CF1EF00900F5CF1FF00A00F5CF20F00F
:10155000000E0A6E640E096E33C007F0086AD5ECFF
:1015600010F0120E07240F6E000E0820106E000EF1
:10157000126E030E116E95EC12F0500E0F24F66EE3
:10158000080E1020F76E0900F5CF1BF00900F5CF0B
:101590001CF00A00F5CF1DF006EC0FF01BC030F078
:1015A0001CC031F01DC032F0000E126E030E116E21
:1015B000000E046E0A0E036E33C001F0026A58EC8E
:1015C00011F001C00FF002C010F095EC12F0500EB7
:1015D0000F24F66E080E1020F76E0900F5CF1EF0EE
:1015E0000900F5CF1FF00A00F5CF20F030C01BF046
:1015F00031C01CF032C01DF006EC0FF01BC02DF006
:101600001CC02EF01DC02FF02DC01BF02EC01CF0F2
:101610002FC01DF0000E1E6E000E1F6E3F0E206EBE
:1016200006EC0FF01BC02AF01CC02BF01DC02CF0E4
:1016300012000A0E336463D0000E126E030E116E98
:10164000000E046E0A0E036E33C001F0026A58ECFD
:1016500011F001C00FF002C010F095EC12F0500E26
:101660000F24F66E080E1020F76E0900F5CF1EF05D
:101670000900F5CF1FF00A00F5CF20F0000E0A6E2A
:101680000A0E096E33C007F0086AD5EC10F0090E97
:1016900007240F6E000E0820106E000E126E030E4F
:1016A000116E95EC12F0500E0F24F66E080E1020FD
:1016B000F76E0900F5CF1BF00900F5CF1CF00A000A
:1016C000F5CF1DF006EC0FF01BC030F01CC031F060
:1016D0001DC032F030C01BF031C01CF032C01DF014
:1016E000000E1E6E000E1F6E3F0E206E06EC0FF0F9
:1016F0001BC02AF01CC02BF01DC02CF01200335070
:10170000030D500EF324F66E080EF420F76E090058
:10171000F5CF1BF00900F5CF1CF00A00F5CF1DF046
:10172000000E1E6E000E1F6E3F0E206E06EC0FF0B8
:101730001BC02AF01CC02BF01DC02CF01200000EA4
:101740003B6E8B94750E2E6EE10EE82EFED72E2E7C
:10175000FCD700F08B84420EE82EFED700D0948494
:1017600082A404D094948284000E1200850EE82E88
:10177000FED700F082B404D094948284000E12004C
:10178000850EE82EFED700F0000E3B6E040E3B6483
:1017900001D02FD0000E326E000E3A6E070E3A6462
:1017A00001D01BD082A4FED73A0EE82EFED700F05F
:1017B00082A40FD03A5000082E6E070E2E26010E7E
:1017C0002F6E2E2A02D0D8902F362E2EFCD72F50D7
:1017D000321282B4FED73A2AE1D73B50010D330EC4
:1017E000F324D96E000EF420DA6E32C0DFFF3B2AFC
:1017F000CDD794948284345035243624332437183A
:10180000D8A485D0345033C02EF02F6A2EC02FF0CC
:101810002E6A2E10306E2F50316E365035C02EF09D
:101820002F6A2EC02FF02E6A2E10386E2F50396E70
:1018300039AE2FD0000E0F6E200E106E410E116EBD
:10184000FF0E3814096E7F0E39140A6EBAEC12F0CE
:1018500009C00CF00AC00DF00BC00EF080EC0FF0C8
:101860000CC01BF00DC01CF00EC01DF0000E1E6E53
:10187000800E1F6EBF0E206E06EC0FF02AC0D9FF3F
:101880002BC0DAFF1BC0DEFF1CC0DEFF1DC0DEFF69
:101890001ED038C009F039C00AF0BAEC12F009C005
:1018A0000CF00AC00DF00BC00EF0000E0F6E200EF3
:1018B000106E410E116E80EC0FF02AC0D9FF2BC0C4
:1018C000DAFF0CC0DEFF0DC0DEFF0EC0DEFF30C051
:1018D00009F031C00AF0BAEC12F009C00CF00AC0ED
:1018E0000DF00BC00EF0000E0F6E200E106E410EAC
:1018F000116E80EC0FF02CC0D9FF2DC0DAFF0CC0A8
:10190000DEFF0DC0DEFF0EC0DEFF010E1200000E76
:10191000120036C03AF03B6A3C6A35343A3601E38D
:101920003B803A503F6E39C03AF03B6A3C6A3834EB
:101930003A3601E33B803A503E6E3F50D8B40BD06C
:101940003E503F5CD8B00ED03F5000083E243A6E67
:10195000180E3A6407D037C034F038C035F039C0BB
:1019600036F012003E50D8B40BD03F503E5CD8B099
:101970000ED03E5000083F243A6E180E3A6407D04D
:1019800034C034F035C035F036C036F01200060EE3
:101990003D6E36BE3D8E39BE3D8C358EFF0E341603
:1019A000FF0E3516000E3616388EFF0E3716FF0E58
:1019B0003816000E39163E503F5CD8B01BD0D89078
:1019C0003736383639363E063F503E18D8B40DD03B
:1019D0003D063DC03AF0070E3A16D8B406D0EFD710
:1019E000D8903632353234323F2A3E503F18D8B480
:1019F0001FD0F6D73F503E5CD8B01AD0D8903436BE
:101A0000353636363F063F503E18D8B40DD03D0629
:101A10003DC03AF0070E3A16D8B406D0EFD7D890AA
:101A20003932383237323E2A3E503F18D8A4F7D7E1
:101A30003DAE0CD0FF0E341AFF0E351AFF0E361ACB
:101A4000010E3426000E3522000E36223DAC0CD09D
:101A5000FF0E371AFF0E381AFF0E391A010E3726FD
:101A6000000E3822000E3922000E3D6E345037260B
:101A7000355038223650392239AE0ED0FF0E371A83
:101A8000FF0E381AFF0E391A010E3726000E3822C3
:101A9000000E3922010E3D6E37C001F038C002F051
:101AA00039C003F03FC004F03DC005F0F3EC0FF087
:101AB00001C034F002C035F003C036F0120003C09C
:101AC00007F0086A096A0234073601E30880075004
:101AD0000F6E0F50D8A409D0000E016E000E026EDA
:101AE000000E036E000E046E120006C007F0086AB6
:101AF000096A0534073601E3088007500E6E0E5060
:101B0000D8A409D0000E016E000E026E000E036E06
:101B1000000E046E1200028EFF0E0116FF0E02165A
:101B2000000E0316058EFF0E0416FF0E0516000E9E
:101B30000616000E0A6E000E0B6E000E0C6E000EE6
:101B40000D6E7F0E0F5E0E50980F0F5E180E0E6E0C
:101B5000D8900A360B360C360D360450015C055011
:101B6000025806500358D8A007D00450015E055013
:101B7000025A0650035A0A80D890013602360336BC
:101B80000E2EE6D70FAE16D00F50800A970FD8B0A2
:101B900009D0000E016E000E026E000E036E000EE4
:101BA000046E1200D8900D320C320B320A320F3E06
:101BB000F9D715D0170E0F640FD0000E016E000E6E
:101BC000026E000E036E000E046E1200D8900A36EC
:101BD0000B360C360D360F060F50D8A4F7D70AC0B7
:101BE00001F00BC002F00CC003F00DC004F01200B5
:101BF000033404340C6E0C50D8A409D0000E016ECE
:101C0000000E026E000E036E000E046E120006340B
:101C100007340B6E0B50D8A409D0000E016E000ED5
:101C2000026E000E036E000E046E1200038EFF0E95
:101C30000116FF0E0216FF0E0316000E0416068E86
:101C4000FF0E0416FF0E0516FF0E0616000E0716F1
:101C5000000E076E000E086E000E096E000E0A6E72
:101C60007F0E0C5E0B50A00F0C5E200E0B6ED890FA
:101C70000736083609360A360450015C055002580A
:101C80000650035807500458D8A009D00450015EEC
:101C90000550025A0650035A0750045A0780D8903C
:101CA00001360236033604360B2EE1D70CAE16D0C1
:101CB0000C50800A9F0FD8B009D0000E016E000EA4
:101CC000026E000E036E000E046E1200D8900A32EF
:101CD0000932083207320C3EF9D715D01F0E0C64BA
:101CE0000FD0000E016E000E026E000E036E000E8D
:101CF000046E1200D8900736083609360A360C06EC
:101D00000C50D8A4F7D707C001F008C002F009C0F2
:101D100003F00AC004F0120033C035F0366A376AA7
:101D20003234353601E3368035503F6E3F50D8A40B
:101D300009D0000E316E000E326E000E336E000EB2
:101D4000346E1200170E356E31C036F032C037F0E7
:101D500033C038F03528396E04D0D8903832373255
:101D60003632392EFAD736503A6E328EFF0E311691
:101D7000FF0E3216000E331631503B6E32503C6E61
:101D800033503D6E3E6A8E0E3F5E3FAE16D03F50E2
:101D9000800A8F0FD8B009D0000E316E000E326E5F
:101DA000000E336E000E346E1200D8903E323D327B
:101DB0003C323B323F3EF9D715D0170E3F640FD06F
:101DC000000E316E000E326E000E336E000E346E59
:101DD0001200D8903B363C363D363E363F063F50EB
:101DE000D8A4F7D73A50D8B408D03E1E3D1E3C1EAA
:101DF0003B6C000E3C223D223E223BC031F03CC0F9
:101E000032F03DC033F03EC034F012001DC021F06E
:101E1000226A236A1C34213601E322802150246E79
:101E20002450D8A407D0000E1B6E000E1C6E000EAE
:101E30001D6E120020C021F0226A236A1F34213651
:101E400001E322802150296E2950D8A407D0000E2A
:101E50001B6E000E1C6E000E1D6E120029507B0FB3
:101E600024261DC029F02050291A800E29161C8E08
:101E70001F8EFF0E1E16FF0E1F16000E2016000EE0
:101E8000256E000E266E000E276E070E286E1BA014
:101E900006D01E5025261F50262220502722D890DB
:101EA0001D321C321B32D8901E361F362036282E8B
:101EB000EED7090E286E1BA006D01E5025261F50F7
:101EC000262220502722D8901D321C321B32D89057
:101ED000273226322532282EEED725C001F026C023
:101EE00002F027C003F024C004F029C005F0F3EC91
:101EF0000FF001C01BF002C01CF003C01DF0120067
:101F00000EC012F0136A146A0D34123601E3138006
:101F10001250196E1950D8A407D0000E0C6E000E86
:101F20000D6E000E0E6E120011C012F0136A146ACC
:101F30001034123601E3138012501A6E1A50D8A4CE
:101F400007D0000E0C6E000E0D6E000E0E6E12000D
:101F5000000E166E000E176E000E186E1A50890FC6
:101F6000195E0EC01AF011501A1A800E1A160D8E34
:101F7000FF0E0C16FF0E0D16000E0E16108EFF0E25
:101F80000F16FF0E1016000E1116180E156ED890B3
:101F90001636173618360F500C5C10500D5811506D
:101FA0000E58D8A007D00F500C5E10500D5A11508B
:101FB0000E5A1680D8900C360D360E36152EE7D7F1
:101FC00016C001F017C002F018C003F019C004F0E9
:101FD0001AC005F0F3EC0FF001C00CF002C00DF0D8
:101FE00003C00EF012000450D8B405D00150021006
:101FF0000310D8A40CD0000E016E000E026E000E6D
:10200000036E1200042AD890033202320132000E0D
:102010000114066E000E0214076EFE0E0314086E05
:10202000065007100810D8B40CD0ECD7042A010EC3
:102030000126000E0222000E0322D8900332023243
:102040000132000E0114066E000E0214076EFF0E20
:102050000314086E065007100810D8B406D0E6D74F
:102060000406D89001360236033602BE03D0020EB3
:102070000460F6D704A0029ED890043204500312E4
:102080000550D8A4038E01C001F002C002F003C0C5
:1020900003F0120003AE16D001C007F002C008F032
:1020A00003C009F0071E081E091E072A000E082299
:1020B0000922000E0724016E000E0820026E800E19
:1020C0000920036E06AE16D004C007F005C008F064
:1020D00006C009F0071E081E091E072A000E082266
:1020E0000922000E0724046E000E0820056E800EE3
:1020F0000920066E000E011A000E021A800E031A45
:10210000000E041A000E051A800E061A0450015C17
:102110000550025806500358D8B002D0D89012008B
:10212000D880120006EC13F051EC12F0570E2A6E14
:10213000000E2B6E540E2C6E000E2D6E9FEC0BF0CD
:10214000536E5304D8A41DD0E6EC12F0850E466EF3
:10215000080E476E57C048F058C049F059C04AF0C1
:102160004DEC04F002EC13F0770E466E080E476E4D
:1021700054C048F055C049F056C04AF04DEC04F048
:1021800008D0E6EC12F0930E036E080E046E28ECF5
:1021900012F0330E526EBB0E516EE00EE82EFED7DB
:1021A000512EFCD7522EFAD7C1D7000E0C6E0AAEB4
:1021B00006D0096C0A1ED8B00A2A010E0C6E08AEB1
:1021C00006D0076C081ED8B0082A010E0C1A000EA3
:1021D0000E6E000E0D6E09500A10D8B41CD0010E00
:1021E0000B6E04D0D89009360A360B2A0AAEFAD7FD
:1021F000D8900D360E360950075C0A500858D8A002
:1022000005D00950075E0A50085A0D80D8900A324E
:1022100009320B2EEDD70C50D8B404D00D6C0E1E25
:10222000D8B00E2A0DC007F00EC008F01200000E44
:10223000096E000E0A6E000E0B6E000E0C6E05503D
:10224000061007100810D8B42AD0010E0D6E06D063
:10225000D89005360636073608360D2A08AEF8D768
:10226000D89009360A360B360C360550015C0650FC
:1022700002580750035808500458D8A009D00550F8
:10228000015E0650025A0750035A0850045A09804A
:10229000D89008320732063205320D2EE1D709C038
:1022A00001F00AC002F00BC003F00CC004F01200F1
:1022B000000E066E02AE06D0016C021ED8B0022AD5
:1022C000010E066E04AE04D0036C041ED8B0042ABE
:1022D00003500410D8B418D0010E056E04D0D89065
:1022E00003360436052A04AEFAD70350015C0450C5
:1022F0000258D8A004D00350015E0450025AD8906E
:1023000004320332052EF1D70650D8B404D0016C44
:10231000021ED8B0022A01C001F002C002F0120071
:10232000016E01A802D08C8801D08C9801AA02D03D
:102330008C8A01D08C9A01AC02D08C8C01D08C9C00
:1023400001AE02D08C8E01D08C9E8C8400F08C94D7
:102350000138F00B016E01A802D08C8801D08C9856
:1023600001AA02D08C8A01D08C9A01AC02D08C8C4C
:1023700001D08C9C01AE02D08C8E01D08C9E8C84BE
:1023800000F08C94530EE82EFED700F0120005509A
:10239000061007100810D8B424D0010E096E06D01C
:1023A000D8900536063607360836092A08AEF8D71B
:1023B0000550015C06500258075003580850045855
:1023C000D8A008D00550015E0650025A0750035AA3
:1023D0000850045AD8900832073206320532092EC6
:1023E000E7D701C001F002C002F003C003F004C04F
:1023F00004F012008E0E116E06D0D8900C320B3203
:102400000A320932112A000E09140D6E000E0A1448
:102410000E6E000E0B140F6EFF0E0C14106E0D508E
:102420000E100F101010D8A4E8D709C001F00AC090
:1024300002F00BC003F011C004F0000E056EF3ECC7
:102440000FF001C009F002C00AF003C00BF0120047
:1024500014D003C0F6FF04C0F7FFF86A070EF76454
:1024600003D00800F55005D0F6CFE9FFF7CFEAFF1B
:10247000EF50F1EC12F0034A042A03C0F6FF04C047
:10248000F7FFF86A070EF76403D00800F55005D08F
:10249000F6CFE9FFF7CFEAFFEF500009D8B41200FA
:1024A000D8D79598959A959C959E959695948C9647
:1024B0008C948C988C9A8C9C8C9E020E046E450E8B
:1024C000036EAA0EE82EFED7032EFCD7042EFAD7F1
:1024D000020EF7EC12F0280EF7EC12F00C0EF7ECEF
:1024E00012F0060EF7EC12F01200435044104510A3
:1024F000D8B406D0000E431A000E441A800E451AB6
:1025000040C034F041C035F042C036F043C037F02F
:1025100044C038F045C039F089EC0CF034C040F0CC
:1025200035C041F036C042F012000F501102F3CF17
:1025300013F0F4CF14F00F501202F3501426105081
:102540001102F350142613C00FF014C010F0120043
:10255000015002100310D8B406D0000E011A000E6C
:10256000021A800E031A01C001F002C002F003C07B
:1025700003F0120009C001F00AC002F0036A8E0ED7
:10258000046E000E056EF3EC0FF001C009F002C0FE
:102590000AF003C00BF01200036E000E026E3A0E3A
:1025A000036005D02F0E036402D0010E026E02C03C
:1025B00001F00130120000EE79F0080EEE6AE80634
:1025C000FDE1000EF86E000192EF10F0010EF7EC45
:1025D00012F00D0E036EFC0EE82EFED7032EFCD774
:1025E0001200026E8C86025090EC11F01200026E06
:1025F0008C96025090EC11F01200036E0350F1EC37
:1026000012F01200C00EF7EC12F0120094948B84BA
:022610001200B6
:020000040020DA
:08000000FFFFFFFFFFFFFFFF00
:020000040030CA
:0E000000000C181EFF8381FF0FC00FE00F40A1
:00000001FF
