:08000000803102288731F02F46
:100C36008631472686312400161408008631472659
:100C46008631240016150800FB007B0886319526A0
:100C560086310800FB007B088631B2268631080003
:100C6600863147268631240096140800FE001200BD
:100C76001E00FE0B3A2E0034F000863147268631E0
:100C86007008240091000800240016081F39031D6F
:100C96004D2E4E2E472E1419512E522E472E080039
:100CA60021008E150E1624001508F0390838950017
:100CB60094179516133092009601080024340034D8
:100CC60012340034113400343034003454340034D7
:100CD6002334003408343F34F10086311B26863134
:100CE6007E3086313F2686317108083886313F26A8
:100CF600863186312126863108008631472686319F
:100D06002400961586314726863124001108F00006
:100D16007008F1008631472686312400961616168D
:100D260071080800FA007A08F039F6007608F8002B
:100D36007A080F39F6000330F635FF3E031D9F2E65
:100D46007635F7007708F900F20178088631F4263F
:100D56008631F20179088631F42686310800FA00D8
:100D66007A08F039F6007608F8007A080F39F600A6
:100D76000330F635FF3E031DBC2E7635F7007708A7
:100D8600F900F201F20A78088631F4268631F2017A
:100D9600F20A79088631F426863108002000B5006B
:100DA6003208FD007D08FC00350887312227863190
:100DB600E92E3308840034088500000886312D2684
:100DC600863101302000B3070030B43D20003308DF
:100DD6008400340885001200031DF22EF32EDC2E4B
:100DE6000800F500FD2EFE30F3007308F5050D2F03
:100DF60075140D2F7208F300F4017408003A0319F4
:100E0600052F0D2F7308003A0319F62E013A031920
:100E1600FB2E0D2F750886316F26863175157508E0
:100E260086316F268631FB30F3007308F5057508A9
:100E360086316F2686313230890B1F2F080020003D
:100E4600B0003D2F7C087F3EAE002E08B100532F28
:100E56007C08BF3EAE002E08B100532F7C08933E9F
:100E6600AE002E08B100532F7C08D33EAE002E08EC
:100E7600B100532F3008AE00AF012F08003A031916
:100E8600452F532F2E08013A0319252F033A03192C
:100E96002B2F013A0319312F073A0319372F532FF6
:100EA60031088631272687310800003086316F26C3
:100EB60087316230FC006630890B5F2FFC0B5F2F99
:100EC60003308631952687312130FC007630890B38
:100ED6006A2FFC0B6A2F0032033086319526873144
:100EE600A630890B742F0032033086319526873160
:100EF600023086319526873128308631272687317C
:100F06003D30890B842F00320730FC007C0820001E
:100F1600B8000F308631272687313D30890B912F57
:100F2600003201308631272687310D30FC00FC3037
:100F3600890B9B2FFC0B9B2F080038302100990052
:100F4600980122009601863153268731873158272A
:100F5600873105302000B6003608B2000030B300F5
:100F66008830B40002308631D126873123008F01C4
:100F760021008F0186311B268731D03086313F26EE
:100F86008731063086313F268731863133268731D1
:100F9600D13086313F268731863180268731200041
:100FA600B600B7013608A0003708A1008631212611
:100FB60087312000200822008F000D302000B70066
:100FC600AF30B600B630890BE62FB60BE62FB70B5F
:100FD600E62F0000BD2F8031022861308400863064
:100FE600850020308600003087000E308631392695
:100FF6008731B80120008731A02F5534433445345A
:06100600563441340034B1
:020000040001F9
:08000000FF3FFF3FFF3FFF3F00
:04000E00E73FFF3E8B
:00000001FF
