:100000000C945A000C946F000C946F000C946F00C9
:100010000C946F000C946F000C946F000C946F00A4
:100020000C946F000C946F000C946F000C946F0094
:100030000C946F000C946F000C946F000C946F0084
:100040000C946F000C946F000C946F000C946F0074
:100050000C946F000C946F000C946F000C946F0064
:100060000C946F000C946F000C946F000C946F0054
:100070000C946F000C946F000C946F000C946F0044
:100080000C946F000C946F000C946F000C946F0034
:100090000C946F000C946F000C946F000C946F0024
:1000A0000C946F000C946F000C946F000C946F0014
:1000B0000C946F0011241FBECFEFD8E0DEBFCDBF80
:1000C00011E0A0E0B1E0E4E2F1E002C005900D92A1
:1000D000A230B107D9F70E9471000C9490000C94E3
:1000E00000008FEF84B985E090E00090000102C02D
:1000F000880F991F0A94E2F785B92FEF80E792E005
:10010000215080409040E1F700C000008091000144
:100110008F5F80930001893030F310920001E3CFAC
:04012000F894FFCF81
:020124000100D8
:00000001FF
