:100000000C945A000C9464000C9464000C946400EA
:100010000C9464000C9464000C9464000C946400D0
:100020000C9464000C9464000C9464000C946400C0
:100030000C9464000C9464000C9464000C946400B0
:100040000C9464000C9464000C9464000C946400A0
:100050000C9464000C9464000C9464000C94640090
:100060000C9464000C9464000C9464000C94640080
:100070000C9464000C9464000C9464000C94640070
:100080000C9464000C9464000C9464000C94640060
:100090000C9464000C9464000C9464000C94640050
:1000A0000C9464000C9464000C9464000C94640040
:1000B0000C94640011241FBECFEFD8E0DEBFCDBF8B
:1000C0000E9466000C9495000C9400008AB18F6029
:1000D0008AB98AB18F708AB989B1829581709BB1D2
:1000E00080FB90F99BB989B185FB882780F99BB18A
:1000F00080FB91F99BB989B186FB882780F99BB178
:1001000080FB92F99BB989B187FB882780F99BB165
:1001100080FB93F99BB92FE788E391E02150804061
:0E0120009040E1F700C00000D7CFF894FFCF69
:00000001FF
